:020000040000FA
:10000000780B0020D9000000F30000001D10000054
:1000100000000000000000000000000000000000E0
:10002000000000000000000000000000F7000000D9
:100030000000000000000000F90000008917000027
:1000400039100000431000004D1000005710000050
:10005000FD000000FD000000611000006B100000BA
:1000600075100000FD0000007F100000FD00000082
:1000700089100000FD000000931000009D1000009A
:10008000A7100000B1100000BB100000C510000058
:10009000CF100000D9100000E3100000ED100000A8
:1000A000F7100000FD000000011100000B1100001E
:1000B00015110000FD0000001F11000029110000B3
:1000C0000448854600F082F800480047D92C00001B
:1000D000C046C046780B002009480A4A002100A10A
:1000E000814200D902440848026008488047084815
:1000F0000047FEE7FEE7FEE7FEE7FEE7FEE700005B
:10010000000000200000000008ED00E0F9170000EA
:10011000C100000030B50B4601460020202201241A
:1001200009E00D46D5409D4205D31D469540491B2B
:100130002546954040191546521E002DF1DC30BD74
:1001400003460B439B0703D009E008C9121F08C0F0
:10015000042AFAD203E00B780370401C491C521E9B
:10016000F9D27047D2B201E00270401C491EFBD2A6
:1001700070470022F6E710B513460A4604461946B2
:10018000FFF7F0FF204610BD421C0178401C0029FB
:10019000FBD1801A704710B5002200E0521C835C2E
:1001A0008C5CA34201D1002BF8D1D8B2E1B2401A45
:1001B00010BD30B504460020034600E05B1C9342AE
:1001C00003D2E05CCD5C401BF8D030BD064C01256D
:1001D000064E05E0E36807CC2B430C3C98471034EF
:1001E000B442F7D3FFF770FF343B0000543B0000EC
:1001F00070B5174C206A174D400707D5686800286E
:1002000000D08047606A042188436062206A8007CA
:1002100007D5A868002800D08047606A022188437B
:100220006062206AC00707D0E868002800D08047D5
:10023000606A400840006062206A000707D52868AD
:10024000002800D08047606A08218843606270BD42
:10025000402400409C01002070B50546001F0006A8
:100260002A49800B4418FF34013420682849C2070A
:10027000281F0006800C002A06D00858002800D04D
:1002800080470120C043606020682D1F2906204A56
:10029000890C80078D18002806DA6868002800D0CD
:1002A00080470220C04360602068400706D5A868E8
:1002B000002800D080470420C04360602068000709
:1002C00006D5E868002800D080470820C043606059
:1002D0002068400606D5A869002800D08047402045
:1002E000C04360602068000606D5E869002800D099
:1002F00080478020C04360602068C00505D5286A1B
:10030000002800D080470348606070BD0030004086
:10031000AC010020FFFEFFFF00220E4B002806D09C
:1003200001280AD002280ED0012210467047186812
:10033000000C000408431860F7E7186A000C00047A
:1003400008431862F1E7044803681B0C1B040B43C5
:100350000360EAE7000C0040400C004000220E4B16
:10036000002806D001280AD002280ED0012210460B
:1003700070475868000C000408435860F7E7586A53
:10038000000C000408435862F1E7044843681B0C62
:100390001B040B434360EAE7000C0040400C0040A4
:1003A000F0B4504A002302245515961570270028F2
:1003B00007D0012835D0022863D00123F0BC1846AD
:1003C0007047D068A8430D78ED07AD0D2843D06085
:1003D000D0684D78B043ED07ED0D2843D060D0686C
:1003E0008D78B8436D076D0E2843D060D06808251E
:1003F000A843CD78ED072D0F2843D060D0680425A1
:10040000A8430D79ED076D0F2843D060D068A04355
:100410004C79E407A40F2043D06033488968016019
:10042000CCE7D06AA8430D78ED07AD0D2843D06224
:10043000D06A4D78B043ED07ED0D2843D062D06A05
:100440008D78B8436D076D0E2843D062D06A0825B9
:10045000A843CD78ED072D0F2843D062D06A04253C
:10046000A8430D79ED076D0F2843D062D06AA043F1
:100470004C79E407A40F2043D0621B48C96841604F
:100480009CE71A48C268AA430D78ED07AD0D2A43D0
:10049000C260C2684D78B243ED07ED0D2A43C260D9
:1004A000C2688D78BA436D076D0E2A43C260C26878
:1004B0000825AA43CD78ED072D0F2A43C260C268F4
:1004C0000425AA430D79ED076D0F2A43C260C26867
:1004D000A2434C79E407A40F2243C2600248096991
:1004E00081606BE7000C00401C000020400C0040C5
:1004F000002101230B4A002806D0012808D0022839
:100500000AD0012108467047D0681843D060F9E747
:10051000D06A1843D062F5E70348C2681A43C26044
:10052000F0E70000000C0040400C004000211028C3
:1005300005D30A311038C0B2C9B21028F9D2081850
:10054000C0B2704701480068004700004C0000201E
:10055000F0B4314A04462F4B002093602F4B936038
:10056000002901D0012300E00023176A002C4AD0A3
:10057000012109070425012C2CD0022C24D0032CA6
:1005800008D00F211068C902884310600420176248
:10059000F0BC7047146A0C4314622149CC681025E2
:1005A000AC431D012C43CC60CC682025AC435D01DD
:1005B0002C43CC6091690F24214391611168082478
:1005C000A143DB0019431CE011689B00A9431943B8
:1005D0001160DCE7146A0C4314621249CE680224ED
:1005E000A6435C002643CE60CE689B00AE431E430C
:1005F000CE6011690F2319431161116802239943D9
:1006000021431160C3E7116849084900194311608B
:10061000BDE700005A5A000000200040A5A50000D8
:10062000400D0240000D0240014600200A4A002908
:1006300009D001290AD002290AD0032902D19069E0
:100640004006C00F7047D0680005FAE71069F7E769
:100650005069C004F5E70000002000401CA184B0F0
:1006600009681C4A02911168526801921A4A009165
:10067000116800208906890F06D001291ED00229A1
:1006800015D003291ED11BE0D06802A94005800FB8
:10069000085C124948431249884213D111494988DC
:1006A000D3685B055B0D8B420CD10F480AE05069A3
:1006B00069468005C00F8000085803E00B4801E040
:1006C0000120C003116804B0C905490FC840704734
:1006D00004081018C83A00000020004040420F00F3
:1006E00000366E01000C1000408651010048E80100
:1006F00010B5FFF7B3FF034909684905890FC840E2
:1007000010BD00000020004010B50446007800F045
:100710004BF9607800F076F8A07800F09FF80020A0
:1007200010BD000010B4354A0346334C00209460DD
:10073000334C9460002900D00121092B53D21C00B6
:100740007C4424792419A744040D151D252D353D1D
:10075000450013680124E403A343C9030B4313605A
:1007600010BC704753680224A34349000B435360F5
:1007700010BC704753680424A34389000B435360A3
:1007800010BC704753680824A343C9000B4353604F
:1007900010BC704753681024A34309010B435360F6
:1007A00010BC704753682024A34349010B43536096
:1007B00010BC704753684024A34389010B43536026
:1007C00010BC704753688024A343C9010B43536096
:1007D00010BC70475368FF240134A34309020B4344
:1007E000536010BC70470F211068C9028843106025
:1007F00010BC0420704700005A5A0000002000403E
:10080000A5A5000010B5102811D008DC01280ED0D5
:1008100002280CD004280AD0082806D107E0202896
:1008200005D0402803D0802801D0042010BD094CF9
:100830000749A1600849A16000F096FC2168FF22E9
:10084000C13240079143C00D01432160002010BD1B
:100850005A5A000000200040A5A5000010B501284C
:1008600007D0022805D0042803D0082801D004208E
:1008700010BD094C0749A1600849A16000F074FC53
:1008800021680322520280079143400D01432160F9
:10089000002010BD5A5A000000200040A5A500000D
:1008A00010B40023002901D0012200E00022012120
:1008B000054C8140206A002A01D0084300E08843AB
:1008C000206210BC1846704700200040034610B458
:1008D0000020214A21499B1E052B39D21C007C4453
:1008E00024792419A744020C16202A001289CB6807
:1008F0005205520DDB0ADB021343CB6010BC70477C
:10090000D288CB685205520DDB0ADB021343CB6061
:1009100010BC70479288CB685205520DDB0ADB028F
:100920001343CB6010BC70475288CB685205520D00
:10093000DB0ADB021343CB6010BC70471288CB6824
:100940005205520DDB0ADB021343CB6010BC70472B
:1009500010BC042070470000000C10000020004074
:10096000032200230F499202002808D0012809D051
:1009700002280ED0032812D0042318467047486975
:10098000904304E0486990430122920205E04861E7
:10099000F3E7486990430122D2028018F7E74869DB
:1009A0001043F4E700200040F8B5344D04462868B1
:1009B0008006860F002C15D0012C05D0022C08D003
:1009C000032C0AD00420F8BD296930200143296195
:1009D00008E00320FFF7C4FF04E0A8693021884342
:1009E0002030A861274F2648F8622748F862012C7A
:1009F00001D0012E03D1386A042108433862012155
:100A00002046FFF7A5FD002C08D0012C09D0022CB0
:100A10002AD0032CF7D1A869400604E0E868000555
:100A200001E02869F8E7C00FEDD01548A860164826
:100A3000A860002C1BD0012C19D0022C17D0032C3D
:100A400015D00F212868C90288432860002130464C
:100A5000FFF77EFD012C03D0386A042188433862F9
:100A600000F0C2FE0020F8BD6869C004DBE728681A
:100A700030218843A107890E0843E6E700200040A3
:100A80005A5A000000000240A5A5000000280FD01F
:100A90001E4A116AD30219431162017803239B068F
:100AA000002907D0012910D0022908D003290FD02E
:100AB00004207047516B99430123DB0603E0516B1F
:100AC000994301239B06C91804E0516B194301E0C7
:100AD000516B99435163516B01235B0699434378F2
:100AE000DB079B091943516341680948491E41616D
:100AF0000849CA691202120A43041A43CA61002152
:100B00008161012101610020704700000020004048
:100B100000E000E004ED00E001484068004700000C
:100B20002800002070B4C506ED0E012443B2AC408D
:100B3000002B01DB184D2C608007C00EFF2585407F
:100B40008907090E8140002B08DB9E081348B60078
:100B500030180668AE430E4306600AE01807000F1F
:100B6000083886080E48B6003018C669AE430E43F2
:100B7000C661012A09D0002B05DB0A480460BFF3D7
:100B80004F8FBFF36F8F70BC7047002BFBDB0648A5
:100B9000046070BC7047000080E200E000E400E008
:100BA00000ED00E080E100E000E100E030B402464A
:100BB00001201949194C1A4D6023002A16D0012A28
:100BC00012D1C86A000C00040019C862C86A000C7F
:100BD00000044019C862086A0A6A4006C00F800112
:100BE0009A4302430A62002030BC7047C86A000C76
:100BF00000040019C862C86A000C00044019C862E9
:100C0000086A0A6A8006C00F40019A4302430A62DA
:100C100030BC002070470000000002405A5A00001B
:100C2000A5A5000030B4024601201B491B4C1C4DF9
:100C30006023002A18D0012A14D1C86A000C0004CD
:100C40000019C862C86A000C00044019C862086A2A
:100C500002224006800F10430A6A40019A43024371
:100C60000A62002030BC7047C86A000C00040019FA
:100C7000C862C86A000C00044019C862086A0122F0
:100C80004006800F10430A6A40019A4302430A62F9
:100C900030BC002070470000000002405A5A00009B
:100CA000A5A50000F0B40027032902D9F0BC042058
:100CB00070475D4AD36A1C0C5C4B2404E418D46270
:100CC000D46A250C5A4C2D042D19D562156820269E
:100CD0006D0A6D028E40F605F60D35431560D56A36
:100CE0002D0C2D04ED18D562D56A2D0C2D042D196F
:100CF000D562556817262D0A2D028E40F6B235436F
:100D00005560D56A2D0C2D04ED18D562D56A2D0CD1
:100D10002D042D19D56295681B262D0A2D028E40B3
:100D2000F6B235439560D56A2D0C2D04ED18D562C9
:100D3000D56A2D0C2D042D19D562D5683D4EAD0C0C
:100D4000AD048E40B603B60B3543D560D56A2D0C85
:100D50002D04ED18D562D56A2D0C2D042D19D56200
:100D60001569354E6D0D6D058E40F602F60A354358
:100D70001561D56A2D0C2D04ED18D562D56A2D0CA0
:100D80002D042D19D562556918262D0B2D038E4083
:100D90003605360D35435561D56A2D0C2D04ED18F9
:100DA000D562D56A2D0C2D042D19D5629569F026D2
:100DB0002D0B2D038E403605360D35439561D56AD2
:100DC0002D0C2D04ED18D562D56A2D0C2D042D198E
:100DD000D562D5697D266D0B6D03F6008E40F60455
:100DE000F60C3543D56104250329D16A10D0090CCE
:100DF0000904C918D162D16A090C09040919D16220
:100E0000116AA94311620D4948603846F0BC704729
:100E1000090C0904C918D162D16A090C090409191D
:100E2000D162116A2943EDE7000002405A5A0000DE
:100E3000A5A5000050460000E02202002800002086
:100E400070B405461F4900208D4202D970BC0420B1
:100E500070471D49CA6A1D4B120C1204D218CA628F
:100E6000CA6A1B4C120C12041219CA620A6B194E80
:100E700032430A630A6AD206FCD4CA6A120C12040C
:100E8000D218CA62CA6A120C12041219CA620A6A19
:100E900092089200921C0A6200222A700A6AD20604
:100EA000FCD4CA6A120C1204D218CA62CA6A120CA2
:100EB00012041219CA620A6B120C12040A6370BC83
:100EC00070470000FF7F0000000002405A5A0000F7
:100ED000A5A50000FFFF0000820104481018036967
:100EE00001228A409343036100207047000E0240B4
:100EF00000B5012300F058FE002000BD034A800128
:100F000080184068C840C007C00F7047000D0240FD
:100F100070B513480025056112480561012001F0F4
:100F20000BFC114C00280ED0022001F005FC01281A
:100F30000BD0202001F000FC00280BD004202071F1
:100F400002F044FA70BD257106E00120207102F024
:100F500043FA70BD0320207102F03EFA70BD00001C
:100F6000C00E0240000E024006000020F0B51F4FE8
:100F70009E469446079D059B069A3C6AFE033443B1
:100F80003C6286011A483018C76801248C40A74388
:100F9000C76089007118174E002789190F606146D4
:100FA0000029016801D0214300E0A1430160C1692B
:100FB000002D01D0214300E0A143C1617146002909
:100FC000016A01D0214300E0A1430162416A002B84
:100FD00001D0214300E0A1434162C16A002A01D04F
:100FE000214300E0A143C1620020F0BD0020004089
:100FF000000D0240000C024010B40123064C8B404F
:10100000800100198168002A01D0194300E099434A
:10101000816010BC70470000000D024081B00020CC
:1010200000900028FDD001B0704700000148006822
:10103000004700003000002010B50020FFF768FFD7
:1010400010BD10B50120FFF763FF10BD10B50220E1
:10105000FFF75EFF10BD10B50320FFF759FF10BD6D
:1010600010B5002000F071FC10BD10B5012000F09B
:101070006CFC10BD10B5002000F088F810BD10B554
:10108000002000F07BFB10BD10B50020FFF7CEFF65
:1010900010BD10B5002000F0CFFB10BD10B5012031
:1010A00000F0CAFB10BD10B5022000F0C5FB10BD5A
:1010B00010B5002000F064F810BD10B50420FFF753
:1010C000CBF810BD10B50520FFF7C6F810BD10B560
:1010D0000620FFF7C1F810BD10B5002000F0AEF8F3
:1010E00010BD10B5002000F04DFD10BD10B5002062
:1010F00000F032FA10BD10B50020FFF779F810BDEE
:1011000010B5002000F01CFD10BD10B5012000F04E
:1011100017FD10BD10B5002000F080F810BD10B50F
:101120000020FFF7F9FC10BD10B50020FFF70AFA08
:1011300010BD00000B49002805D0022807D0032865
:101140000AD00420704748690422904302E04869AD
:1011500040084000486103E048690222904348612A
:1011600000207047000200400021002806D001281E
:1011700003D94008491C0128FBD8084670470000E5
:1011800001480068004700003400002070B5114D90
:101190000F4C2869400706D50020FFF7CBFF606899
:1011A000002800D080472869C00706D00220FFF73A
:1011B000C1FFA068002800D080472869800706D5B5
:1011C0000320FFF7B7FF2068002800D0804770BDDC
:1011D0006C02002000020040017810230D4A002913
:1011E000116901D0194300E099431161417804234A
:1011F0000029116901D0194300E0994311618078F9
:1012000002210028106901D0084300E088431061E2
:101210000020704700ED00E030BF70470548C16A0C
:1012200049084900C16204480068002800D000470E
:10123000704700000024004038000020014800688A
:10124000004700003C00002010B5002000F02CF901
:101250000849094A084640780870FB21014089087E
:1012600089001170511E082210430870022002F0FC
:1012700029F810BD100000201100002010B5012039
:1012800000F012F90248082201781143017010BDE4
:101290001000002010B502468078FFF747F981085A
:1012A00089008842507818D1FFF740F91749401853
:1012B0002038C37F9078FFF739F91B189078FFF733
:1012C00035F984081078FFF731F92018181807212C
:1012D000801CFEF71FFF084610BDFFF727F90C49D9
:1012E00040182038C37F9078FFF720F91B189078BA
:1012F000FFF71CF984081078FFF718F92018181860
:101300000721801CFEF706FF084610BDD03A0000FA
:10131000DC3A0000F0B5002401221646002975D001
:101320003546A54072D0072C47D225007D442D7943
:101330006D19AF44030F1B3645566C000278150734
:101340002D0F092D38D815092D01902D34D8592A83
:1013500032D833E0027815072D0F092D2CD8150946
:101360002D01902D28D8592A26D827E04C4A1268FA
:10137000120702780AD415072D0F092D1CD815095C
:101380002D01902D18D8122A16D817E015072D0F09
:10139000092D11D815092D01902D0DD8242A0BD80F
:1013A0000CE0027815072D0F092D05D815092D0120
:1013B000902D01D8062A01D901223CE000223AE012
:1013C00005782A07120F092A05D82A091201902A3E
:1013D00001D8312D01D9012200E000221B0A1B0295
:1013E00012E005782A07120F092A05D82A091201E6
:1013F000902A01D8122D01D9012200E00022FF27F6
:101400003F02BB432D023D402B4314E014E005781E
:101410002A07120F092A05D82A091201902A01D891
:10142000992D01D9012200E00022FF273F042D045D
:10143000BB433D402B43401C002A2FD1641CE4B227
:10144000072C00D26AE7C80628D5880621D5154D95
:10145000480613D51804000EFFF768F80446180272
:10146000000EFFF763F8014628192038C07F022CD0
:101470000BD1890709D1401CC0B206E01804000E48
:10148000FFF754F828182038C07FD9B2814203D81A
:1014900004E0D8B2282801D90120F0BD1046F0BDE3
:1014A00000140040E83A00000849002808D001284C
:1014B00001D004207047486808229043486003E048
:1014C0004868102290434860002070470014004094
:1014D0000F498022002807D0012809D002280BD00C
:1014E00003280FD0042070470868904308600DE07F
:1014F00048689043486009E0086B0122D20390439A
:10150000086303E0086820229043086000207047C9
:10151000001400400F498022002807D0012809D07C
:1015200002280BD003280FD004207047086810430E
:1015300008600DE048681043486009E0086B01222C
:10154000D2031043086303E00868202210430860B8
:10155000002070470014004070B50D4D0B4C6868BA
:10156000C00607D568681021884368602068002895
:1015700000D080476868000707D56868082188435D
:1015800068606068002800D0804770BD400000207F
:1015900000140040002801D10120704770B5314986
:1015A00004462F4D00784A6807231B0240079A43E0
:1015B000400D02434A606078002805D0012803D01E
:1015C0000426002E44D108E00A680823C0079A4385
:1015D000000F02430A600026F3E7606800281CD071
:1015E0000A6801239B039A430378DB075B0C1A43C9
:1015F0000A600278002A0A6808D03F2380781B021C
:1016000080069A43800C02430A6006E04078D208C4
:10161000D2004007400F02430A60A068002807D0AC
:101620000122114600F056F8002801D0012070BDBB
:10163000E068002804D000682860E06840686860BE
:10164000207C012806D0002203211720FFF76AFA28
:10165000304670BD012203211720FFF763FAF7E738
:10166000400000200014004018490A6812060ED5F8
:101670004A6801231A434A60154A4B689B0702D403
:10168000521EFAD203E0002A01D109207047F0B4BB
:101690008E68CD680A698C699446CB690A6A4F697D
:1016A0000670457065468570047143718271C7701C
:1016B00048684008400048600868000602D548684D
:1016C0008007FCD4F0BC00207047000000140040EC
:1016D000E703000070B5204D044628681646002335
:1016E00000060CD568680122104368601B486A68D0
:1016F000920702D4401EFAD104E0002802D001294A
:1017000002D00DE0092070BD07212046FFF702FE40
:101710000300F8D12078A8606078E860A07828619C
:10172000012E0DD178212046FFF7F4FD0300EAD108
:101730002079A8616079E861A0792862E078686121
:1017400068684008400068602868000602D568683C
:101750008007FCD4184670BD00140040E703000069
:1017600008B504480068694608700348406801F0FD
:101770009EFB08BD000100401400002001480068E5
:10178000004700004800002010B5144B587800288E
:101790001DD09878124A401CC1B299701846007842
:1017A00080240A2906D100219970002805D091686B
:1017B000214391609978814202D19068A043906062
:1017C00008484068800702D4002001F0EFFA0120A9
:1017D00000F020FB012000F06DFB10BD0600002092
:1017E000800D0240C00D024010B5FEF737FF0149E1
:1017F000086010BD0000002000B583B00220FFF794
:1018000065F801210020FEF7A3FEFEF727FF084937
:1018100008600821684600F061FC012069464870B4
:10182000044801906846FFF731F903B000BD00009D
:1018300000000020FFFFFF000649002805D0012816
:1018400005D0022805D18868004708680047486825
:10185000004770471C00002010B40024084A2146AD
:1018600014234B43D358834203D1142041438C1893
:1018700003E0491CC9B20229F2D3204610BC7047CC
:101880005000002010B50C46FFF7E6FF002805D0F9
:10189000002C05D0012C08D0022C0CD0042010BD47
:1018A000406841690422914303E040684169490866
:1018B0004900416104E0406841690222914341616D
:1018C000002010BD10B50C46FFF7C6FF002803D05E
:1018D000002C03D0012C06D0042010BD40684168C4
:1018E0000222914303E04068416849084900416091
:1018F000002010BD10B50C46FFF7AEFF002809D040
:101900004068416810229143E207D20E11434160C2
:10191000002010BD042010BD10B50C46FFF79CFF41
:10192000002803D0002C03D0012C07D0042010BDC8
:101930004068416802221143416004E04068416808
:10194000012211434160002010BD70B50546FFF72C
:1019500083FF04000AD060680169490707D50021A8
:101960002846FFF78FFFE06800280AD170BD0069A4
:10197000C007FBD001212846FFF784FF206900281B
:10198000F4D0804770BD0000F8B50C460746FFF75D
:1019900063FF060024D0002C22D025783846FFF7BC
:1019A0005BFFC021002806D0406842688A43A9072F
:1019B000090E0A4342606568002D19D03846FFF7CA
:1019C0004BFF002814D041684A6820239A432B78A3
:1019D000DB079B0E1A434A602978012902D007E0F1
:1019E0000420F8BD4268697891604068A978C160B8
:1019F000A068002807D04068F060A0688068306167
:101A0000A0680068B060BF1D78B28108214A267BBB
:101A100089008C188107CB0EFF219940C0229A4083
:101A200003071B0F083B9B081B4D9B005B19C5065A
:101A30000127ED0EAF40012E0AD0002801DB174D23
:101A40002F60002818DB23688B431343236017E0C3
:101A5000002801DB114D2F60002804DB23688B4335
:101A60001343236003E0DC698C431443DC610028EA
:101A70000EDB0B4807600BE0DC698C431443DC6130
:101A8000002805DB07480760BFF34F8FBFF36F8F58
:101A90000020F8BD00E400E000ED00E080E200E09E
:101AA00000E100E080E100E070B50E460446FFF77B
:101AB000D3FE050015D002212046FFF7E3FE68683B
:101AC00006602046FFF7C8FE002804D04068006981
:101AD0008007C00FF5D002212046FFF7D3FE00207B
:101AE00070BD042070BD70B514460E460025FFF78A
:101AF000B3FE002815D0002C13D0406841680122A5
:101B0000520291436278D207920D114341602278CC
:101B1000002A13D0012A06D0022A0FD0032A0DD1A1
:101B200001E0002070BD606841016078401C704396
:101B3000FEF7F0FA01210904081A85B2284670BDA3
:101B400010B50E4C0E4900280DD001280AD1606A4C
:101B5000800707D54868002800D08047606A0221C6
:101B60008843606210BD606AC007FBD00868002827
:101B700000D08047606A40084000F2E7002400403F
:101B80007800002006484168090608D51E2101603A
:101B9000E121016003480068002800D00047704739
:101BA000800C00408000002070B4D5070124154E41
:101BB0008C4080018019002D06D0016B002B01D0D4
:101BC000214300E0A1430163910706D5416B002B3F
:101BD00001D0214300E0A1434163510706D5816B49
:101BE000002B01D0214300E0A1438163110706D5FA
:101BF000C16B002B01D0214300E0A143C16370BC45
:101C000000207047000D024002E008C8121F08C102
:101C1000002AFAD170477047002001E001C1121F6D
:101C2000002AFBD17047000070B50546084844689B
:101C3000002C08D02946E06AFEF7ADFA002804D04F
:101C4000646A002CF6D1002070BD204670BD0000F3
:101C5000B8000020FFB581B007461D460E4634206F
:101C60000A9C01F047F8002819D00E4A9168002913
:101C700001D0486281625168002900D15060002182
:101C800090603022115441624160C7610660C562B4
:101C90008161039A02848060C4600061416105B083
:101CA000F0BD0000B800002070B5002813D0044635
:101CB0006168002902D0204610308847154D002168
:101CC0006868844210D1446A002C0AD0A16200F0F6
:101CD00009FD6C6070BD0846FFF7A6FF0400F9D04F
:101CE000E6E70024A960F2E7A86884420AD1846A82
:101CF000002C04D0616200F0F5FCAC6070BD0024E3
:101D00006960F8E7A16A606A48628162204600F073
:101D1000E9FC70BDB800002070B51C4D064668692E
:101D20000024002801D0804704462E61002E09DDE2
:101D300000F030F8E968002901D015488847286983
:101D40000028F5DC6869002810D0297800290ED019
:101D50008047A0420AD200F01DF8E968002901D0AE
:101D60000B48884768698047A042F4D370BD80471C
:101D7000A042FBD900F00EF8E968002901D0044820
:101D8000884768698047A042F4D870BDB800002039
:101D9000DC000020F8B51E48C1694468002930D035
:101DA000002685698661C661002C2AD02020205E2D
:101DB000002823DBA0694019A061E16988421DD396
:101DC000401A27462037A061387C012806D0012020
:101DD000387420462168083088473E742020205EF1
:101DE00000280BD0401E00B22084002806D1606A73
:101DF000002807D000212046FFF756FF646A002C18
:101E0000D4D1F8BD00212046FFF74EFFF8BD0000F9
:101E1000B800002006498A6912188A610A6A1218F5
:101E20000A620122CA610A69101A0861704700003B
:101E3000B8000020002903D0012901D000207047FC
:101E40000C4B10B400229C5CFF2C06D0521C1206D6
:101E5000120EF8D010BC0020704798540648002994
:101E6000815405D000200549885410BC01207047DA
:101E70000120F8E784000020850000208600002073
:101E800010B5084CFF22206101212046FEF76AF9B7
:101E9000214600204871E0712072A0710420607218
:101EA00010BD0000840000200148807970470000C8
:101EB00084000020F8B53D4E04463069002873D0F8
:101EC0000025B572394FB07A385CFF2866D0316989
:101ED0008847002810D03649B07A0D5435490A5C3D
:101EE000142A01D2121905E033490A5C002A13D1E1
:101EF0000122F2720A540FE02E49B07A4A1E0D54A4
:101F0000115C142902D20919115405E02A490A5C0E
:101F1000012A01D1F2720D542748B17A425C274858
:101F2000405C8242F07A31D101280AD1F572707A90
:101F3000400706D5224A0120505422484A008552C3
:101F400003E01F48405C012828D11E4B48001A5A64
:101F5000121992B21A521C4882421FD3707A7A5CCC
:101F6000042318420FD0194FF0793B54184B1A54E0
:101F7000401CC0B2F071052800D1F571B079052878
:101F800001D2401CB0710E48455407E0012805D12C
:101F90000B48F572425C012A00D14554B07A401CCE
:101FA0000006000EB0728DD0F8BD00008400002045
:101FB0008700002088000020860000208500002087
:101FC00089000020900000201027000098000020C9
:101FD0009D000020024942680068CA60886070471E
:101FE000A400002030B50446104883B00723022126
:101FF00045686A466220A84769460888FF2140BABA
:10200000323148437D21C900FEF784F8608069467B
:102010008878207008794979C006C00C0843A080F0
:1020200069468879C008607003B030BDAC000020FC
:1020300070B50E4D064601230A212C6890B00C4A5B
:102040006220A047012E0CD0402310216C686A4604
:102050006220A047402207496846FEF7AAF80028F8
:1020600001D000F009F810B070BD0000AC000020F5
:10207000A5000020F43A0000F8B5154D154C0123D9
:10208000621C0A212E686220B047402310212E686E
:10209000114A6220B04720796179012308436946DB
:1020A000087008212E686A466220B0470123E21CAE
:1020B0000A212E686220B0476078A1780123084386
:1020C000694608700A212C686A466220A047F8BD5C
:1020D000AC000020A4000020F43A0000002806D044
:1020E000491E04D300220270401C491EFBD27047D7
:1020F000F8B51F4FFE6878697568002836D0401E15
:10210000786178683168041E00D104E0A14202D0F1
:10211000A468002CFAD1002C1CD0844209D1B968E3
:10212000884203D100207860B8600DE08068786054
:102130000AE0B868844204D1E0680021B860816098
:1021400002E0E168A0688860606800F0CBFA204691
:1021500000F0C8FA304600F0C5FA78692E466D687E
:10216000401E7861401CCCD1F8603861F8BD000099
:10217000E400002070B5441E601C11D009487D2188
:1021800001260025C90036060068FDF7C3FF064991
:10219000331A8D611A4688699042FCD8641EF8D2C1
:1021A00070BD00000000002000E000E030B585B008
:1021B00001210820FEF7B6FA0025684605700124C3
:1021C00044708570FFF708F86846057144718471A2
:1021D00001A8FEF799FA022000F09CFF03210846AF
:1021E00000F0DFFA0121032000F0D2FA00210120E3
:1021F00000F0D7FA00211B2000F0D3FA00212020A4
:1022000000F0CFFA0021222000F0CBFA002121209B
:1022100000F0C7FA0021022000F0C3FA00F08CFBA6
:102220000B48FFF72DFE00210120FFF703FE0948B0
:1022300003900948029002A8FFF7CCFE0020FFF7A8
:10224000F7FE00F02BF800F063FE05B030BD000093
:1022500039270000A1290000CD2900008178064A15
:102260008906090E891802780A7442784A748278BD
:102270008A74C078C8747047040100208100054842
:102280000818C17C4906490EC1740348C17C491E27
:10229000C174704704010020840100200048704789
:1022A00090010020004870470601002070B5002012
:1022B00000F082F996221E493F2000F0A5F91C4D3E
:1022C0001C4E28881C4CB0421DD096212846FDF794
:1022D00050FF2E800020810049198A7C83069209D4
:1022E00092019B0E1A43401C8A741E28F3D32320AC
:1022F000A07408206074252020741220A07334205C
:102300006073562020730D4A0DA1002000F0B6FB2B
:102310000D4A0EA1002000F0B1FB0F4A0FA10020D2
:1023200000F0ACFB207D01210843207570BD00004A
:10233000040100200898000084010020852D000081
:102340007265737461727400DD2D0000706F7765C3
:10235000725F6F6666000000052E0000706F776583
:10236000725F6F6E0000000010B50F4C0021E27C20
:10237000D3090AD0491C1E29FAD300F063F80023C0
:102380001A460AA101F0B4F910BD890009190278B2
:102390000A7442784A7482788A74C078C87406488D
:1023A000C17C491CC17410BD04010020616C6172C4
:1023B0006D5F66756C6C00008401002070B51B4E6B
:1023C0001B4CF07C002828D08000401C00F092FCC0
:1023D000050022D0F07C28706C1C164A0020D17CAD
:1023E000C9090AD0810089180B7C23704B7C63706B
:1023F0008B7CA370C97CE170241D401C1E28EED389
:1024000000F020F8F17C2A468B000BA15B1C01F048
:102410006FF9284600F066F970BD00F013F801234B
:10242000224605A101F064F970BD0000840100207E
:102430009701002004010020616C61726D5F696E7C
:10244000666F00000148006870470000140000201B
:1024500070B590B00C210CA8FFF740FE032105A831
:10246000FFF73CFE08210AA8FFF738FE1421684652
:10247000FFF734FE0321172000F093F90021182004
:1024800000F08FF94548C16808229143C160444972
:10249000CB68DB08DB009B1DCB60036893430360C4
:1024A000C36810229343C3600B69DB08DB009B1DEC
:1024B0000B610168114301603A484168520291433F
:1024C000416001210820FEF7EBF901210846FEF7E3
:1024D000E7F9354800240E900C940D946846047575
:1024E0000CA8089005A80790012508A80571684662
:1024F000057608A844724B20C0010B9008A805720D
:10250000FEF7F6F801460AAA0120FFF7ECFA0646A4
:1025100068464571047169460120FDF741FF314667
:102520000120FDF7F9FE31460120FDF717FF0120DC
:10253000FDF7DEFF06A90120FFF726FA0121084674
:10254000FFF7EAF901210846FFF79CF90021012075
:10255000FFF7B8F901210846FFF7CCF980210120E7
:1025600000F05AFC114D00216860232000F019F999
:102570000021242000F015F900231A460C490120FF
:102580000094FFF767FB01224021182001F026F894
:102590000849286001F022F910B070BD800D02409A
:1025A000800C0240000F0240611700001400002060
:1025B000E5330000E137000070B50546FEF74EF840
:1025C0000F49FDF7A7FD04460E480178A14201D14D
:1025D000002070BD0470002D0AD00020FEF722FB01
:1025E0000120FEF71FFBE1B22846FEF75BFB70BD42
:1025F0000020FEF7DBFA0120FEF7D8FAF3E700002F
:1026000000127A002800002010B50B463F2803D89E
:10261000510A09183F2901D9042010BD410218466A
:10262000FDF78EFD002010BD3F2801D90420704722
:1026300000B54002FEF704FC002000BDF0B400230A
:102640009C4643023F2803D8540A20183F2802D949
:10265000F0BC042070471F4CE06A1F4D000C0004C2
:102660004019E062E06A1D4E070C3F04BF19E762A3
:10267000276B1B4807432763206AC006FCD4E76A20
:102680003F0C3F047F19E762E76A3F0C3F04BF1924
:10269000E762276ABF08BF007F1C2762521E08D36B
:1026A0000F781F70491C5B1C276AFF06FCD4521E62
:1026B000F6D2E06A000C00044019E062E06A000C07
:1026C00000048019E062206B000C00042063F0BC61
:1026D00060467047000002405A5A0000A5A500005D
:1026E000FFFF000010B5002823D0124B0022001F6E
:1026F000196803E0814203D80A4649680029F9D1E4
:10270000002A0AD01368841A9C4204D10068181861
:102710001060104602E0506000E01860002907D009
:1027200002680B1A934203D10B68D2180260496801
:10273000416010BDFC00002010B50A21FDF7EAFC45
:10274000FEF7DCFB10BDF8B50C4616460A21FDF776
:10275000E1FC05460F46FEF7BFFB224639462846F8
:10276000FEF7C6FB002D06D0012D06D0022D06D0A7
:10277000032D07D105E0002404E0012402E0022437
:1027800000E00324324603212046FEF7CBF9F8BDD2
:1027900010B50C460A21FDF7BDFC2246FEF72CFCC5
:1027A00010BDF0B50D4683B00A21FDF7B3FC320A27
:1027B0001202C3B21A43FF231B029A43FF260B02E5
:1027C000360233401A4300230126062D55D22F002E
:1027D0007F443F79FF19BF4402371D516C86FF25A6
:1027E0002D04AA433504FF26360435402A4312023D
:1027F000120A1D062A43240A240235121C43AC4344
:102800001D02361235402C4335021B04AC432B40CD
:102810001C4381E0FF252D04AA43FF2735043F0414
:102820003D402A431202240A120A1D0624022A43AA
:1028300034433D12AC431D023E1235402C431B0471
:10284000BC433B401C4367E0FF252D04AA43FF2700
:1028500035043F043D402A4312023506120A240A79
:102860002A4324021C433D12AC431D023E12354054
:102870002C431B04BC433B401C434DE0FF252D046F
:10288000AA43FF261D04360435402A431202120AC9
:102890001D062A43240A240235121C43AC431D02A0
:1028A000361235402C4335021B04AC432B401C43ED
:1028B00032E0FF252D04AA43FF271D043F043D40BD
:1028C0002A431202120A1D06240A2A4324021C4328
:1028D0003D12AC4335023E1235402C431B04BC4331
:1028E0003B401C4318E0FF252D04AA43FF271D048D
:1028F0003F043D402A431202120A3506240A2A43A5
:1029000024021C433D12AC4335023E1235402C4399
:102910001B04BC433B401C4323021D0E23041B0E1F
:102920000193130EE4B2120202950094120EFEF708
:102930001DFB03B0F0BD000000B583B01548029048
:10294000154801901A206946487019200870684699
:1029500000F053FF11490122086005210220FEF713
:102960004BFB012206210220FEF746FB0421192021
:10297000FFF717FF04211A20FFF713FF012205219B
:102980000220FEF739FB012206210220FEF734FB6C
:1029900003B000BD39270000912700000C00002083
:1029A000F8B51C4615460E46074600F0E3FB002826
:1029B00008D1E0B2009004482B4632463946006800
:1029C00000F052FFF8BD00000C000020F8B51C46D6
:1029D00015460E46074600F0CDFB002808D1A0B2F0
:1029E000009004482B4632463946006801F045F80D
:1029F000F8BD00000C000020F7B5064682B00220AA
:102A000000901D484568FFF773FB002D26D0002776
:102A10003C463046FDF7B8FB002807D9305D641C02
:102A2000C7193046FDF7B0FBA042F7D82869B84275
:102A30000ED16868317802783446914208D109068F
:102A4000090E0ED061784278401C641C9142F6D089
:102A5000AD68002DEAD1009805B0F0BD012005B0A9
:102A6000F0BD2A680499039890470024FFF740FBC3
:102A7000204605B0F0BD0000E4000020F7B50F4689
:102A8000182000F037F9040031D03846FDF77CFB00
:102A9000401C054600F02EF9606000282AD02A4626
:102AA0003946FDF74DFB002635463846FDF76CFBF1
:102AB000002807D9785D6D1C86193846FDF764FB40
:102AC000A842F7D80020A0602661E060029820604C
:102AD0000098002800D004600A49486800280FD0F8
:102AE00088688460E0608C60002003B0F0BD012045
:102AF00003B0F0BD2046FFF7F5FD022003B0F0BDA6
:102B00004C60F0E7E4000020F8B5044600262030D1
:102B1000052904D07C2905D0F7290DD012E0617673
:102B2000067611E0627E052A02D1027E012A01D0DA
:102B3000667609E0A17607E0027E022A02D1A27E33
:102B40007C2A15D0A6766676027E0323521C027676
:102B5000E08E042201280ED0022817D005250B0292
:102B6000062703281ED0042833D005283DD062E074
:102B70000120E086F8BDE1626068814220D800292A
:102B80000DD00220E086206A46541EE0A06A256A25
:102B9000461CA6622954E16AA06A81424BD1E386B1
:102BA000E26148E0E069052802D0062802D042E050
:102BB000236340E0206B08432063A168884201D969
:102BC000E68638E0002802D0E286A66233E0E58699
:102BD00031E0A06A626A431CA3621154A16A206BAF
:102BE000884228D1E586E76125E0E069072821D001
:102BF000A38E00200B43A386E56A0246002D06D96A
:102C0000216A8F5C521C381880B29542F9D8256B26
:102C10000021002D06D9626A575C491C381880B221
:102C20008D42F9D8834253D1142000F063F8050097
:102C300005D005E0A386E069401CE061F8BDE686AA
:102C4000E06A002818D0401CE06200F053F82860C9
:102C500000280CD0E16A002000290ED9216A2A68D8
:102C6000095C1154E16A401C8142F7D805E028460E
:102C7000FFF738FDE6862BE02E60E06AA860206B47
:102C8000002818D000F036F8686000280CD0216BBE
:102C90000020002910D9616A6A68095C1154216B0F
:102CA000401C8142F7D807E0E06A0028DFD028689E
:102CB000FFF718FDDBE76E60206B2E61E86020698E
:102CC000002807D0606905616561E068401CE0602C
:102CD000E686F8BD2561F7E700F06AFAFFF7E6FA45
:102CE000FFF764FA00F06EFB00F056FA00F03EFBCE
:102CF000FCE70000F0B50B30C108C900144F0026F6
:102D0000144A0FE003688B420BD38B4205D95C1A3F
:102D10004318456830C3083B00E04368136002C0B5
:102D200004E0021D10680028ECD13046002803D1D1
:102D30003868002801D00020F0BD064A064810601F
:102D4000064A121AD208D20044C001203860D7E7E0
:102D500000010020FC0000207C020020780A0020F6
:102D60007047704770B5047805460A2C09D30A21CC
:102D70002046FDF7CFF90A214143611A00010143C2
:102D8000297070BD10B50020FFF716FC3F20FFF73B
:102D90004BFC0448FEF768FC962203493F20FFF7EE
:102DA0004DFC10BD900100200401002010B50A4C1C
:102DB0000028607004D003211B20FFF7F2FC10BD37
:102DC00000211B20FFF7E4FC00211B20FFF7E9FC9A
:102DD0000020A07010BD0000060000200248017D08
:102DE0004908490001757047840100200449FB220D
:102DF0000878104080088000F72210400870704763
:102E00001000002002480122017D11430175704726
:102E100084010020C069704770B505460E46202029
:102E2000FFF768FF041E0FD028467043FFF762FFCC
:102E30002060002809D06060A06000202061E6606A
:102E400060612576E061204670BD2046FFF74AFCB0
:102E5000002070BD10B4C269002A26D0027E012A6B
:102E600004D0022A09D0042A16D10EE0426904686F
:102E7000531C4361A25C0A700EE04269436854002F
:102E8000521C42611A5B0A8006E042698368940022
:102E9000521C42611A590A60C2684169914201D1CB
:102EA00000214161C169491EC16110BC704710B465
:102EB000037E0269012B04D0022B08D0042B13D10E
:102EC0000CE00B78511C04680161A3540CE0540021
:102ED0000988521C43680261195305E0940009688F
:102EE000521C836802611951C169491CC1610269A0
:102EF000C1688A4201D10021016110BC7047000005
:102F00000248082201781143017070471000002028
:102F100070B58CB00446142103A8FFF7DFF8082130
:102F200008A8FFF7DBF803210AA8FFF7D7F8072165
:102F300001A8FFF7D3F801210320FDF709FB0121C8
:102F40001420FDF7ADFC002569460D7301264E7374
:102F50000722214601A8FDF7F3F801AC02A8FEF70D
:102F600099F96946C871104808901048099008A856
:102F7000069005940D704D7004910E770020FEF7B9
:102F8000A7FA03A8FEF706FB0020FEF7C3FA0848DD
:102F90000822017811430170064A07A10020FFF7BB
:102FA0006DFD0CB070BD0000491200007D120000E4
:102FB00010000020ED2D0000706F7765725F6F6666
:102FC0006600000030B585B002A8FEF74DFB6946EB
:102FD000887B0870487B4870087B8870C87AC87006
:102FE000887A0871487A4871087A887100246D4699
:102FF000285DFDF79BFA2855641C072CF8D3FFF7D2
:1030000021FA07236A4602A100F072FB05B030BD29
:1030100074696D650000000010B5044662680078B0
:10302000012190476268607801219047E07F014666
:10303000401EC0B20029FAD1626820789047E07F34
:103040000146401EC0B20029FAD1626860789047FC
:1030500010BD02780B789A4208D11206120E07D0E2
:1030600042784B78401C491C9A42F6D001207047A8
:103070000020704700B583B000F07CF800281ED116
:103080006846FEF7AFFF68460078032805D9684612
:1030900040881921C901884204D80220FFF74CFB5F
:1030A000002804D000F066F8002803D007E00120D3
:1030B00003B000BD0022114602A0FFF79DFC0020D6
:1030C00003B000BD706F7765725F6F6E0000000027
:1030D00010B501211720FFF764FB012208211046DB
:1030E000FFF731FB012204210220FFF72CFBFEF742
:1030F00093F80020FDF798FA0028FAD00022082162
:103100000120FFF720FB002204210220FFF71BFB18
:1031100010BD000030B583B0FDF7D8FB0020FDF7EF
:1031200083FA0028FAD0FDF799FA002469460C705A
:103130007D21C900FCF7EEFF401E01906846FDF7B7
:10314000A5FC01980849401E88420BD807494861F0
:1031500007480722C3691B021B0A4D042B43C361A6
:103160008C610A6103B030BDFFFFFF0000E000E0AA
:1031700004ED00E00748C078002801D00020704727
:1031800010B51F20FFF7D8FA002801D0002010BD8D
:10319000012010BD0600002010B501211F20FFF7FF
:1031A00000FB02490020C87010BD0000060000208E
:1031B00010B506490120C87004211F20FFF7F1FA5D
:1031C00000211F20FFF7E4FA10BD000006000020D8
:1031D00070B50022114622A0FFF70EFC234D244EAD
:1031E000002469680520890701D4002001E03070BF
:1031F0000120FFF7DBFD6420FEF78EFD69680020EB
:10320000890702D4FFF7D2FD03E030700020FFF7FA
:10321000CDFD6420FEF780FD641C022CE1D301216A
:103220001720FFF7BEFA012208211046FFF78BFA9C
:10323000012204210220FFF786FAFDF7EDFF0020AE
:10324000FDF7F2F90028FAD0002208210120FFF74B
:103250007AFA002204210220FFF775FA70BD0000FF
:10326000706F7765725F6F6666000000C00D024088
:10327000060000200022114605A0FFF7BDFBBFF3AA
:103280004F8F06490448C860BFF34F8F00BFFDE76A
:1032900072657374617274000400FA0500ED00E059
:1032A00010B5FFF767FF00280AD000210320FFF7C1
:1032B0006FFA0120FEF75EFF01210320FFF768FA95
:1032C00010BD000001490871704700000600002091
:1032D00008B51048022100796A461170012806D00D
:1032E000032807D0022808D0042809D00AE00320C8
:1032F000107007E00020107004E00120107001E061
:1033000004201070FFF79EF801236A4602A100F026
:10331000EFF908BD0600002077616B655F696E6696
:103320006F00000010B5FFF725FF002819D1032119
:103330001720FFF736FA00211720FFF729FA01219D
:103340001720FFF725FA0748C26808218A43C260A0
:10335000054AD368DB08DB009B1DD36002688A4303
:10336000026010BD800D0240800C024070B5FEF777
:1033700011FDFEF799FD002803D0FFF791FFFFF73D
:1033800079FF0F4C00252078002806D02570FFF724
:1033900071FE01280CD0FFF7C5FF6078012806D127
:1033A0006570FFF767FE012805D0FFF7D9FC70BDF7
:1033B000FFF70EFFF1E7FFF7D4FCFFF709FF70BD41
:1033C0000400002010B5FFF743F810BD01490120AB
:1033D00048707047040000200149012008707047C0
:1033E0000400002010B55C4C9AB06068FFF712FD35
:1033F000002808D069466068FFF72CFD6846017810
:10340000206800F06CF9206800F067F9002845D0CA
:103410006A4612A9206800F01AF950A112A8FFF715
:1034200018FE00283CD050A112A8FFF712FE002879
:103430003AD04FA112A8FFF70CFE002838D04EA1B9
:1034400012A8FFF706FE002836D04EA112A8FFF7FB
:1034500000FE002834D04EA112A8FFF7FAFD002884
:103460005ED04EA112A8FFF7F4FD002863D04EA154
:1034700012A8FFF7EEFD002861D04EA112A8FFF7B9
:10348000E8FD002862D04EA112A8FFF7E2FD002857
:1034900004D16846FEF7E2FEFFF732FD1AB010BD18
:1034A000FFF790FD1AB010BDFFF712FF1AB010BD64
:1034B000FFF7E0FE1AB010BDFFF70AFE1AB010BD0C
:1034C0006946087810A988716946487810A948713A
:1034D0006946887810A908716946C87810A988706B
:1034E0006946087910A948706946487910A908709A
:1034F0000C46881DFFF736FC601DFFF733FC201DCE
:10350000FFF730FCA01CFFF72DFC601CFFF72AFC26
:103510002046FFF727FC10A8FFF7FAFC1AB010BDF1
:10352000FEF7C0FE246802460E2328A1204600F0C4
:10353000DFF81AB010BDFEF741FF1AB010BD6846A3
:10354000FEF712FFFFF7DCFC1AB010BD68460078EA
:10355000FEF794FEA0E70000140000206765745F8A
:1035600074696D650000000077616B650000000004
:10357000726573746172740068635F736C65657003
:10358000000000007365745F74696D6500000000E1
:103590006765745F73746570000000006765745F31
:1035A000616C61726D0000006E65775F616C6172C5
:1035B0006D00000064656C5F616C61726D000000FD
:1035C0007365745F616C61726D0000007374657087
:1035D0005F686973746F727900000000F8B5054682
:1035E00017460E463C20FFF785FB041E1FD03C21EA
:1035F000FCF7BFFD002060622062F8070FD0002DAD
:1036000005D0681CFFF776FB2062002810D0002E42
:1036100005D0701CFFF76EFB606200280DD0002003
:1036200020602061A6606560606127762046F8BD55
:103630002046FFF757F80020F8BD2046FFF752F864
:10364000002D02D0206AFFF74DF80020F8BD70B5BC
:1036500003690446002B34D000290DD09B6800205C
:10366000002B09D923691B681B5C0B702369401C64
:103670009B68491C8342F5D8002A0ED0216900209E
:10368000C968002909D921694968095C1170216953
:10369000401CC968521C8142F5D820690068002886
:1036A00001D0FFF71FF820694068002801D0FFF71C
:1036B00019F820690569002D05D0FFF713F8256179
:1036C00006E0002070BDFFF70DF80020206160616A
:1036D000E068401EE060012070BDC0687047027E57
:1036E000D20703D010B5FFF70FFA10BD70470000E6
:1036F000FFB583B0054600206946164608802A6853
:103700001F461C46002A62D03248052101707C21E8
:103710004170F7218170032190470498FCF734FD34
:10372000694608712A68012101A89047694609790C
:10373000002902D02A68049890472748874203D17D
:103740003046FCF721FD441C2248210A01704470D8
:103750002A6802219047204887420DD1002C11D0C1
:10376000641E0FD0002E0DD02A68214630469047A7
:10377000012168462A6804E0002C03D02A6821460B
:103780003046904769460A790020002A09D90499F1
:103790006B46095C1B88401CC9186B461980904217
:1037A000F5D30020002C08D96A46315C1288401CF1
:1037B00089186A461180A042F6D3684600880549F8
:1037C000020A0A7048702A6802210248904707B02E
:1037D000F0BD0000B4000020FFFF00000160704752
:1037E00070B504464D1E681C06D021780120641C6B
:1037F000FEF75AF96D1EF8D270BD10B504462420AC
:10380000FFF778FA00280DD0A3686268216883600A
:103810004260016000218177417701770121C17702
:103820000902018410BD10B50446626800780021C9
:103830009047E07F0146401EC0B20029FAD162687D
:10384000607801219047E07F0146401EC0B2002908
:10385000FAD16268207801219047E07F0146401E3E
:10386000C0B20029FAD110BDFFB581B016460D4691
:103870000446FFF7D1FB6D00E9B2204600F09DF849
:1038800000286BD03146204600F097F8EDB20120B9
:1038900005432046FFF7C0FB2946204600F08DF87F
:1038A0000A98002700287DD9401E00900026314646
:1038B0001920FEF776FF00257006060EE07F014610
:1038C000401EC0B20029FAD1626860780121904799
:1038D000E07F0146401EC0B20029FAD1A1682078DD
:1038E0008847064362686078002190476D1CEDB2FE
:1038F000082DE1D304211920FEF753FF0498067028
:103900000498401C0490009887422DDA6268207861
:1039100000219047E07F0146401EC0B20029FAD145
:103920006268607801219047E07F0146401EC0B286
:103930000029FAD1626860789047E07F0146401E16
:10394000C0B20029FAD16268207801219047E07F57
:103950000146401EC0B20029FAD120E02046FFF700
:1039600062FF002005B0F0BD6268607800219047DA
:103970006268207801219047E07F0146401EC0B276
:103980000029FAD16268607801219047E07F014602
:10399000401EC0B20029FAD16268607890477F1C4F
:1039A000FFB200E003E00A98874200D27EE720469B
:1039B000FFF739FF012005B0F0BD70B50E46044693
:1039C0000025F0092078626801D0012100E0002183
:1039D00090477006060EE07F0146401EC0B20029E7
:1039E000FAD16268607801219047E07F0146401E6D
:1039F000C0B20029FAD1626860789047E07F014642
:103A0000401EC0B20029FAD16D1CEDB2082DD8D3EA
:103A10006268207801219047002562686078012162
:103A20009047E07F0146401EC0B20029FAD119201C
:103A3000FEF7B7FEA16820788847002813D06D1CD8
:103A4000208CADB2A84209D162686078002190470D
:103A500004211920FEF7A5FE002070BDA168207882
:103A600088470028EBD162686078002190470421E4
:103A70001920FEF796FE012070BDFFB581B01D46EE
:103A80000C4606460A9FFFF7C7FA6006010E30464D
:103A9000FFF793FF002815D030460399FFF78DFFFD
:103AA000781E84B2002F09D0297830466D1CFFF7AC
:103AB00084FF2046641EA4B20028F5D13046FFF7EB
:103AC000B2FE012005B0F0BD0080000000960000AD
:103AD00003060003050103060204000204000003BC
:103AE0000501030602040002312831303130313142
:103AF00030313031157E7C5C646A655C55535661AB
:103B00006F665048434240434B5F757D524407AE59
:103B1000112240566C7C85863D198D1B06344679F2
:103B20008D909046678097AF809FAECB2F0064A5A5
:103B3000B511D011543B000000000020040100002A
:103B4000081C0000583C000004010020740A00001A
:103B5000181C000000093D000101000000000000E9
:103B6000000000000800010000000000000000004C
:103B7000000000000000000000000000FF00000046
:103B80000000000000000000000000000000000035
:103B90000000000000000000000000000000000025
:103BA00000000000000000000000004000000000D5
:103BB00000000000000000000100000000010040C3
:103BC00000000000000000000000000000000000F5
:103BD0000000000000000000FF00000000000000E6
:103BE00000FF0000000000000000000000000000D6
:103BF0000000000000000000C000300F02180000AC
:103C000000000000000000000000000000000000B4
:103C100000000000000000000000000000000000A4
:103C20000000000000000000000000000000000094
:103C30000000000000000000000000000000000084
:103C40000000000000000000000000000000000074
:083C500000000000000000006C
:04000005000000C136
:00000001FF
