Component: ARM Compiler 5.06 update 7 (build 960) Tool: armlink [4d3601]

==============================================================================

Memory Map of the image

  Image Entry point : 0x000000c1

  Load Region LR_IROM1 (Base: 0x00000000, Size: 0x00003c58, Max: 0x00008000, ABSOLUTE)

    Execution Region ER_IROM1 (Exec base: 0x00000000, Load base: 0x00000000, Size: 0x00003b54, Max: 0x00008000, ABSOLUTE)

    Exec Addr    Load Addr    Size         Type   Attr      Idx    E Section Name        Object

    0x00000000   0x00000000   0x000000c0   Data   RO            3    RESET               startup_hc32l110.o
    0x000000c0   0x000000c0   0x00000000   Code   RO         3964  * .ARM.Collect$$$$00000000  mc_p.l(entry.o)
    0x000000c0   0x000000c0   0x00000004   Code   RO         4272    .ARM.Collect$$$$00000001  mc_p.l(entry2.o)
    0x000000c4   0x000000c4   0x00000004   Code   RO         4275    .ARM.Collect$$$$00000004  mc_p.l(entry5.o)
    0x000000c8   0x000000c8   0x00000000   Code   RO         4277    .ARM.Collect$$$$00000008  mc_p.l(entry7b.o)
    0x000000c8   0x000000c8   0x00000000   Code   RO         4279    .ARM.Collect$$$$0000000A  mc_p.l(entry8b.o)
    0x000000c8   0x000000c8   0x00000008   Code   RO         4280    .ARM.Collect$$$$0000000B  mc_p.l(entry9a.o)
    0x000000d0   0x000000d0   0x00000004   Code   RO         4287    .ARM.Collect$$$$0000000E  mc_p.l(entry12b.o)
    0x000000d4   0x000000d4   0x00000000   Code   RO         4282    .ARM.Collect$$$$0000000F  mc_p.l(entry10a.o)
    0x000000d4   0x000000d4   0x00000000   Code   RO         4284    .ARM.Collect$$$$00000011  mc_p.l(entry11a.o)
    0x000000d4   0x000000d4   0x00000004   Code   RO         4273    .ARM.Collect$$$$00002712  mc_p.l(entry2.o)
    0x000000d8   0x000000d8   0x0000003c   Code   RO            4    .text               startup_hc32l110.o
    0x00000114   0x00000114   0x0000002c   Code   RO         3967    .text               mc_p.l(uidiv.o)
    0x00000140   0x00000140   0x00000024   Code   RO         3971    .text               mc_p.l(memcpya.o)
    0x00000164   0x00000164   0x00000024   Code   RO         3973    .text               mc_p.l(memseta.o)
    0x00000188   0x00000188   0x0000000e   Code   RO         3975    .text               mc_p.l(strlen.o)
    0x00000196   0x00000196   0x0000001c   Code   RO         3977    .text               mc_p.l(strcmp.o)
    0x000001b2   0x000001b2   0x0000001a   Code   RO         3979    .text               mc_p.l(memcmp.o)
    0x000001cc   0x000001cc   0x00000024   Code   RO         4303    .text               mc_p.l(init.o)
    0x000001f0   0x000001f0   0x00000068   Code   RO          850    i.Adc_IRQHandler    adc.o
    0x00000258   0x00000258   0x000000c0   Code   RO         1071    i.Adt_IRQHandler    adt.o
    0x00000318   0x00000318   0x00000044   Code   RO         1411    i.Bt_ARRSet         bt.o
    0x0000035c   0x0000035c   0x00000044   Code   RO         1414    i.Bt_Cnt16Set       bt.o
    0x000003a0   0x000003a0   0x00000150   Code   RO         1420    i.Bt_Init           bt.o
    0x000004f0   0x000004f0   0x0000003c   Code   RO         1421    i.Bt_Run            bt.o
    0x0000052c   0x0000052c   0x00000018   Code   RO         2768    i.Change_DateTimeFormat  rtc.o
    0x00000544   0x00000544   0x0000000c   Code   RO         2987    i.ClkTrim_IRQHandler  trim.o
    0x00000550   0x00000550   0x000000d8   Code   RO         1510    i.Clk_Enable        clk.o
    0x00000628   0x00000628   0x00000034   Code   RO         1511    i.Clk_GetClkRdy     clk.o
    0x0000065c   0x0000065c   0x00000094   Code   RO         1512    i.Clk_GetHClkFreq   clk.o
    0x000006f0   0x000006f0   0x00000018   Code   RO         1513    i.Clk_GetPClkFreq   clk.o
    0x00000708   0x00000708   0x0000001a   Code   RO         1515    i.Clk_Init          clk.o
    0x00000722   0x00000722   0x00000002   PAD
    0x00000724   0x00000724   0x000000e0   Code   RO         1516    i.Clk_SetFunc       clk.o
    0x00000804   0x00000804   0x00000058   Code   RO         1517    i.Clk_SetHClkDiv    clk.o
    0x0000085c   0x0000085c   0x00000044   Code   RO         1518    i.Clk_SetPClkDiv    clk.o
    0x000008a0   0x000008a0   0x0000002c   Code   RO         1519    i.Clk_SetPeripheralGate  clk.o
    0x000008cc   0x000008cc   0x00000094   Code   RO         1520    i.Clk_SetRCHFreq    clk.o
    0x00000960   0x00000960   0x00000048   Code   RO         1522    i.Clk_SetRCL_StableTime  clk.o
    0x000009a8   0x000009a8   0x000000e4   Code   RO         1528    i.Clk_SwitchTo      clk.o
    0x00000a8c   0x00000a8c   0x0000008c   Code   RO         1529    i.Clk_SysTickConfig  clk.o
    0x00000b18   0x00000b18   0x0000000c   Code   RO         1796    i.EfRam_IRQHandler  flash.o
    0x00000b24   0x00000b24   0x00000088   Code   RO         2092    i.EnableNvic        interrupts_hc32l110.o
    0x00000bac   0x00000bac   0x00000078   Code   RO         1799    i.Flash_DisableIrq  flash.o
    0x00000c24   0x00000c24   0x00000080   Code   RO         1800    i.Flash_EnableIrq   flash.o
    0x00000ca4   0x00000ca4   0x0000019c   Code   RO         1802    i.Flash_Init        flash.o
    0x00000e40   0x00000e40   0x00000098   Code   RO         1803    i.Flash_SectorErase  flash.o
    0x00000ed8   0x00000ed8   0x00000018   Code   RO         1905    i.Gpio_ClearIrq     gpio.o
    0x00000ef0   0x00000ef0   0x0000000c   Code   RO         1907    i.Gpio_EnableIrq    gpio.o
    0x00000efc   0x00000efc   0x00000014   Code   RO         1908    i.Gpio_GetIO        gpio.o
    0x00000f10   0x00000f10   0x0000005c   Code   RO          458    i.Gpio_IRQHandler   devices.o
    0x00000f6c   0x00000f6c   0x0000008c   Code   RO         1911    i.Gpio_InitIOExt    gpio.o
    0x00000ff8   0x00000ff8   0x00000024   Code   RO         1915    i.Gpio_SetIO        gpio.o
    0x0000101c   0x0000101c   0x0000000e   Code   RO         2093    i.HardFault_Handler  interrupts_hc32l110.o
    0x0000102a   0x0000102a   0x00000002   PAD
    0x0000102c   0x0000102c   0x0000000c   Code   RO         2014    i.I2c_IRQHandler    i2c.o
    0x00001038   0x00001038   0x0000000a   Code   RO         2094    i.IRQ000_Handler    interrupts_hc32l110.o
    0x00001042   0x00001042   0x0000000a   Code   RO         2095    i.IRQ001_Handler    interrupts_hc32l110.o
    0x0000104c   0x0000104c   0x0000000a   Code   RO         2096    i.IRQ002_Handler    interrupts_hc32l110.o
    0x00001056   0x00001056   0x0000000a   Code   RO         2097    i.IRQ003_Handler    interrupts_hc32l110.o
    0x00001060   0x00001060   0x0000000a   Code   RO         2098    i.IRQ006_Handler    interrupts_hc32l110.o
    0x0000106a   0x0000106a   0x0000000a   Code   RO         2099    i.IRQ007_Handler    interrupts_hc32l110.o
    0x00001074   0x00001074   0x0000000a   Code   RO         2100    i.IRQ008_Handler    interrupts_hc32l110.o
    0x0000107e   0x0000107e   0x0000000a   Code   RO         2101    i.IRQ010_Handler    interrupts_hc32l110.o
    0x00001088   0x00001088   0x0000000a   Code   RO         2102    i.IRQ012_Handler    interrupts_hc32l110.o
    0x00001092   0x00001092   0x0000000a   Code   RO         2103    i.IRQ014_Handler    interrupts_hc32l110.o
    0x0000109c   0x0000109c   0x0000000a   Code   RO         2104    i.IRQ015_Handler    interrupts_hc32l110.o
    0x000010a6   0x000010a6   0x0000000a   Code   RO         2105    i.IRQ016_Handler    interrupts_hc32l110.o
    0x000010b0   0x000010b0   0x0000000a   Code   RO         2106    i.IRQ017_Handler    interrupts_hc32l110.o
    0x000010ba   0x000010ba   0x0000000a   Code   RO         2107    i.IRQ018_Handler    interrupts_hc32l110.o
    0x000010c4   0x000010c4   0x0000000a   Code   RO         2108    i.IRQ019_Handler    interrupts_hc32l110.o
    0x000010ce   0x000010ce   0x0000000a   Code   RO         2109    i.IRQ020_Handler    interrupts_hc32l110.o
    0x000010d8   0x000010d8   0x0000000a   Code   RO         2110    i.IRQ021_Handler    interrupts_hc32l110.o
    0x000010e2   0x000010e2   0x0000000a   Code   RO         2111    i.IRQ022_Handler    interrupts_hc32l110.o
    0x000010ec   0x000010ec   0x0000000a   Code   RO         2112    i.IRQ023_Handler    interrupts_hc32l110.o
    0x000010f6   0x000010f6   0x0000000a   Code   RO         2113    i.IRQ024_Handler    interrupts_hc32l110.o
    0x00001100   0x00001100   0x0000000a   Code   RO         2114    i.IRQ026_Handler    interrupts_hc32l110.o
    0x0000110a   0x0000110a   0x0000000a   Code   RO         2115    i.IRQ027_Handler    interrupts_hc32l110.o
    0x00001114   0x00001114   0x0000000a   Code   RO         2116    i.IRQ028_Handler    interrupts_hc32l110.o
    0x0000111e   0x0000111e   0x0000000a   Code   RO         2117    i.IRQ030_Handler    interrupts_hc32l110.o
    0x00001128   0x00001128   0x0000000a   Code   RO         2118    i.IRQ031_Handler    interrupts_hc32l110.o
    0x00001132   0x00001132   0x00000002   PAD
    0x00001134   0x00001134   0x00000034   Code   RO         2377    i.LPUart_ClrStatus  lpuart.o
    0x00001168   0x00001168   0x00000016   Code   RO         1718    i.Log2              ddl.o
    0x0000117e   0x0000117e   0x00000002   PAD
    0x00001180   0x00001180   0x0000000c   Code   RO         2297    i.LpTim_IRQHandler  lpt.o
    0x0000118c   0x0000118c   0x0000004c   Code   RO         2396    i.LpUart_IRQHandler  lpuart.o
    0x000011d8   0x000011d8   0x00000040   Code   RO         2268    i.Lpm_Config        lpm.o
    0x00001218   0x00001218   0x00000004   Code   RO         2269    i.Lpm_GotoLpmMode   lpm.o
    0x0000121c   0x0000121c   0x00000020   Code   RO         2525    i.Lvd_IRQHandler    lvd.o
    0x0000123c   0x0000123c   0x0000000c   Code   RO         2610    i.Pca_IRQHandler    pca.o
    0x00001248   0x00001248   0x00000034   Code   RO          674    i.RtcAlarmCb        rtc_task.o
    0x0000127c   0x0000127c   0x00000018   Code   RO          675    i.RtcCycCb          rtc_task.o
    0x00001294   0x00001294   0x00000080   Code   RO         2771    i.Rtc_CalWeek       rtc.o
    0x00001314   0x00001314   0x00000194   Code   RO         2772    i.Rtc_CheckDateTimeFormat  rtc.o
    0x000014a8   0x000014a8   0x00000028   Code   RO         2774    i.Rtc_ClrIrqStatus  rtc.o
    0x000014d0   0x000014d0   0x00000044   Code   RO         2776    i.Rtc_DisableFunc   rtc.o
    0x00001514   0x00001514   0x00000044   Code   RO         2778    i.Rtc_EnableFunc    rtc.o
    0x00001558   0x00001558   0x0000003c   Code   RO         2781    i.Rtc_IRQHandler    rtc.o
    0x00001594   0x00001594   0x000000d4   Code   RO         2782    i.Rtc_Init          rtc.o
    0x00001668   0x00001668   0x0000006c   Code   RO         2784    i.Rtc_ReadDateTime  rtc.o
    0x000016d4   0x000016d4   0x0000008c   Code   RO         2791    i.Rtc_WriteDateTime  rtc.o
    0x00001760   0x00001760   0x0000001c   Code   RO          735    i.RxIntCallback     trans_task.o
    0x0000177c   0x0000177c   0x0000000c   Code   RO         2928    i.Spi_IRQHandler    spi.o
    0x00001788   0x00001788   0x00000060   Code   RO          459    i.SysTick_Handler   devices.o
    0x000017e8   0x000017e8   0x00000010   Code   RO           12    i.SystemCoreClockUpdate  system_hc32l110.o
    0x000017f8   0x000017f8   0x00000040   Code   RO           13    i.SystemInit        system_hc32l110.o
    0x00001838   0x00001838   0x00000020   Code   RO         1423    i.Tim_IRQHandler    bt.o
    0x00001858   0x00001858   0x0000002c   Code   RO         3078    i.UartGetInternDataPtr  uart.o
    0x00001884   0x00001884   0x00000040   Code   RO         3080    i.Uart_ClrStatus    uart.o
    0x000018c4   0x000018c4   0x00000030   Code   RO         3081    i.Uart_DisableIrq   uart.o
    0x000018f4   0x000018f4   0x00000024   Code   RO         3082    i.Uart_EnableFunc   uart.o
    0x00001918   0x00001918   0x00000032   Code   RO         3083    i.Uart_EnableIrq    uart.o
    0x0000194a   0x0000194a   0x0000003c   Code   RO         3086    i.Uart_IRQHandler   uart.o
    0x00001986   0x00001986   0x00000002   PAD
    0x00001988   0x00001988   0x00000120   Code   RO         3087    i.Uart_Init         uart.o
    0x00001aa8   0x00001aa8   0x0000003e   Code   RO         3089    i.Uart_SendData     uart.o
    0x00001ae6   0x00001ae6   0x0000005a   Code   RO         3090    i.Uart_SetBaudRate  uart.o
    0x00001b40   0x00001b40   0x00000044   Code   RO         3224    i.Vc_IRQHandler     vc.o
    0x00001b84   0x00001b84   0x00000024   Code   RO         3327    i.Wdt_IRQHandler    wdt.o
    0x00001ba8   0x00001ba8   0x00000060   Code   RO         1918    i._GpioEnableIrq    gpio.o
    0x00001c08   0x00001c08   0x0000000e   Code   RO         4317    i.__scatterload_copy  mc_p.l(handlers.o)
    0x00001c16   0x00001c16   0x00000002   Code   RO         4318    i.__scatterload_null  mc_p.l(handlers.o)
    0x00001c18   0x00001c18   0x0000000e   Code   RO         4319    i.__scatterload_zeroinit  mc_p.l(handlers.o)
    0x00001c26   0x00001c26   0x00000002   PAD
    0x00001c28   0x00001c28   0x0000002c   Code   RO         3760    i._find_task_handle  beat_task.o
    0x00001c54   0x00001c54   0x00000054   Code   RO         3762    i.btask_creat_ms    beat_task.o
    0x00001ca8   0x00001ca8   0x00000070   Code   RO         3763    i.btask_del         beat_task.o
    0x00001d18   0x00001d18   0x0000007c   Code   RO         3766    i.btask_delay       beat_task.o
    0x00001d94   0x00001d94   0x00000080   Code   RO         3770    i.btask_handler     beat_task.o
    0x00001e14   0x00001e14   0x00000020   Code   RO         3781    i.btask_tick_inc    beat_task.o
    0x00001e34   0x00001e34   0x0000004c   Code   RO         3384    i.btn_attach        button.o
    0x00001e80   0x00001e80   0x00000028   Code   RO         3385    i.btn_attach_read_io_func  button.o
    0x00001ea8   0x00001ea8   0x0000000c   Code   RO         3386    i.btn_available     button.o
    0x00001eb4   0x00001eb4   0x00000120   Code   RO         3391    i.btn_tic_ms        button.o
    0x00001fd4   0x00001fd4   0x00000010   Code   RO         3446    i.cw2015_attach_trans_cb  cw2015.o
    0x00001fe4   0x00001fe4   0x0000004c   Code   RO         3447    i.cw2015_get_info   cw2015.o
    0x00002030   0x00002030   0x00000048   Code   RO         3448    i.cw2015_init       cw2015.o
    0x00002078   0x00002078   0x00000064   Code   RO         3451    i.cw_update_config_info  cw2015.o
    0x000020dc   0x000020dc   0x00000014   Code   RO         1722    i.ddl_memclr        ddl.o
    0x000020f0   0x000020f0   0x00000084   Code   RO         3905    i.del_handle_chek   key_value_transation.o
    0x00002174   0x00002174   0x00000038   Code   RO         1724    i.delay1ms          ddl.o
    0x000021ac   0x000021ac   0x000000b0   Code   RO          461    i.devices_init      devices.o
    0x0000225c   0x0000225c   0x00000020   Code   RO           94    i.eeprom_change_alarm  eeprom.o
    0x0000227c   0x0000227c   0x00000020   Code   RO           95    i.eeprom_del_alarm  eeprom.o
    0x0000229c   0x0000229c   0x00000008   Code   RO          100    i.eeprom_get_rtc_time  eeprom.o
    0x000022a4   0x000022a4   0x00000008   Code   RO          102    i.eeprom_get_step_history  eeprom.o
    0x000022ac   0x000022ac   0x000000bc   Code   RO          104    i.eeprom_init       eeprom.o
    0x00002368   0x00002368   0x00000054   Code   RO          105    i.eeprom_new_alarm  eeprom.o
    0x000023bc   0x000023bc   0x00000088   Code   RO          107    i.eeprom_upload_alarm  eeprom.o
    0x00002444   0x00002444   0x0000000c   Code   RO          736    i.esp_trans_get_handle  trans_task.o
    0x00002450   0x00002450   0x00000168   Code   RO          737    i.esp_trans_task_init  trans_task.o
    0x000025b8   0x000025b8   0x00000050   Code   RO         1807    i.flash_init_clk    flash.o
    0x00002608   0x00002608   0x00000020   Code   RO         1808    i.flash_read_bytes  flash.o
    0x00002628   0x00002628   0x00000014   Code   RO         1809    i.flash_sector_erase  flash.o
    0x0000263c   0x0000263c   0x000000a8   Code   RO         1810    i.flash_write_bytes  flash.o
    0x000026e4   0x000026e4   0x00000054   Code   RO         4244    i.free              mc_p.l(malloc.o)
    0x00002738   0x00002738   0x0000000e   Code   RO          598    i.gpio_get_level    my_api.o
    0x00002746   0x00002746   0x0000004a   Code   RO          599    i.gpio_set_irq      my_api.o
    0x00002790   0x00002790   0x00000012   Code   RO          600    i.gpio_set_level    my_api.o
    0x000027a2   0x000027a2   0x00000194   Code   RO          601    i.gpio_set_mode     my_api.o
    0x00002936   0x00002936   0x00000002   PAD
    0x00002938   0x00002938   0x00000068   Code   RO          603    i.iic_init          my_api.o
    0x000029a0   0x000029a0   0x0000002c   Code   RO          605    i.iic_read_bytes    my_api.o
    0x000029cc   0x000029cc   0x0000002c   Code   RO          607    i.iic_write_bytes   my_api.o
    0x000029f8   0x000029f8   0x00000084   Code   RO         3907    i.key_value_msg     key_value_transation.o
    0x00002a7c   0x00002a7c   0x0000008c   Code   RO         3908    i.key_value_register  key_value_transation.o
    0x00002b08   0x00002b08   0x000001d0   Code   RO         3666    i.look_at_cmd_trans  trans_packer.o
    0x00002cd8   0x00002cd8   0x0000001a   Code   RO          438    i.main              main.o
    0x00002cf2   0x00002cf2   0x00000002   PAD
    0x00002cf4   0x00002cf4   0x0000006c   Code   RO         4245    i.malloc            mc_p.l(malloc.o)
    0x00002d60   0x00002d60   0x00000002   Code   RO          794    i.mems_chek         mems.o
    0x00002d62   0x00002d62   0x00000002   Code   RO          796    i.mems_sleep        mems.o
    0x00002d64   0x00002d64   0x00000020   Code   RO          739    i.number_to_bcd     trans_task.o
    0x00002d84   0x00002d84   0x00000028   Code   RO          108    i.pd_data_save_cb   eeprom.o
    0x00002dac   0x00002dac   0x00000030   Code   RO          463    i.per_motor_en      devices.o
    0x00002ddc   0x00002ddc   0x00000010   Code   RO          109    i.power_off_cb      eeprom.o
    0x00002dec   0x00002dec   0x00000018   Code   RO          676    i.power_off_cb      rtc_task.o
    0x00002e04   0x00002e04   0x00000010   Code   RO          110    i.power_on_cb       eeprom.o
    0x00002e14   0x00002e14   0x00000004   Code   RO         3627    i.ring_buffer_available  ring_buffer.o
    0x00002e18   0x00002e18   0x0000003c   Code   RO         3628    i.ring_buffer_create  ring_buffer.o
    0x00002e54   0x00002e54   0x0000005a   Code   RO         3630    i.ring_buffer_read  ring_buffer.o
    0x00002eae   0x00002eae   0x00000050   Code   RO         3631    i.ring_buffer_write  ring_buffer.o
    0x00002efe   0x00002efe   0x00000002   PAD
    0x00002f00   0x00002f00   0x00000010   Code   RO          677    i.rtc_alarm_refresh  rtc_task.o
    0x00002f10   0x00002f10   0x000000b4   Code   RO          679    i.rtc_task_init     rtc_task.o
    0x00002fc4   0x00002fc4   0x00000054   Code   RO          680    i.rtc_upload_time   rtc_task.o
    0x00003018   0x00003018   0x0000003a   Code   RO         3515    i.slow_I2C_Start    wire.o
    0x00003052   0x00003052   0x00000022   Code   RO         3952    i.strcmp_my         fast_lib.o
    0x00003074   0x00003074   0x0000005c   Code   RO          464    i.sys_chek_low_soc  devices.o
    0x000030d0   0x000030d0   0x00000042   Code   RO          465    i.sys_deep_sleep_start  devices.o
    0x00003112   0x00003112   0x00000002   PAD
    0x00003114   0x00003114   0x00000060   Code   RO          466    i.sys_frq_switch    devices.o
    0x00003174   0x00003174   0x00000024   Code   RO          467    i.sys_get_esp_wake_sta  devices.o
    0x00003198   0x00003198   0x00000018   Code   RO          469    i.sys_init_end      devices.o
    0x000031b0   0x000031b0   0x00000020   Code   RO          470    i.sys_init_start    devices.o
    0x000031d0   0x000031d0   0x000000a4   Code   RO          471    i.sys_power_off     devices.o
    0x00003274   0x00003274   0x0000002c   Code   RO          472    i.sys_restart       devices.o
    0x000032a0   0x000032a0   0x00000022   Code   RO          473    i.sys_restart_esp   devices.o
    0x000032c2   0x000032c2   0x00000002   PAD
    0x000032c4   0x000032c4   0x0000000c   Code   RO          474    i.sys_set_wake_type  devices.o
    0x000032d0   0x000032d0   0x00000054   Code   RO          475    i.sys_upload_wake_info  devices.o
    0x00003324   0x00003324   0x00000048   Code   RO          476    i.sys_wake_esp_up   devices.o
    0x0000336c   0x0000336c   0x00000058   Code   RO          313    i.task_loop_handler  tasks.o
    0x000033c4   0x000033c4   0x00000008   Code   RO          314    i.tasks_init        tasks.o
    0x000033cc   0x000033cc   0x0000000c   Code   RO          315    i.tasks_memes_chek  tasks.o
    0x000033d8   0x000033d8   0x0000000c   Code   RO          316    i.tasks_wake_esp    tasks.o
    0x000033e4   0x000033e4   0x000001f8   Code   RO          740    i.tic_cb            trans_task.o
    0x000035dc   0x000035dc   0x00000072   Code   RO         3667    i.trans_packer_creat_trans  trans_packer.o
    0x0000364e   0x0000364e   0x0000008c   Code   RO         3669    i.trans_packer_get_pack  trans_packer.o
    0x000036da   0x000036da   0x00000004   Code   RO         3671    i.trans_packer_get_pack_num  trans_packer.o
    0x000036de   0x000036de   0x00000010   Code   RO         3673    i.trans_packer_push_byte  trans_packer.o
    0x000036ee   0x000036ee   0x00000002   PAD
    0x000036f0   0x000036f0   0x000000ec   Code   RO         3674    i.trans_packer_send_pack  trans_packer.o
    0x000037dc   0x000037dc   0x00000004   Code   RO         3677    i.trans_packer_set_write_cb  trans_packer.o
    0x000037e0   0x000037e0   0x0000001a   Code   RO          741    i.uart_write_bytes  trans_task.o
    0x000037fa   0x000037fa   0x0000002c   Code   RO         3519    i.wire_creat        wire.o
    0x00003826   0x00003826   0x00000042   Code   RO         3521    i.wire_endTransmission  wire.o
    0x00003868   0x00003868   0x00000152   Code   RO         3524    i.wire_read_bytes   wire.o
    0x000039ba   0x000039ba   0x000000c0   Code   RO         3529    i.wire_write        wire.o
    0x00003a7a   0x00003a7a   0x0000004e   Code   RO         3531    i.wire_write_bytes  wire.o
    0x00003ac8   0x00003ac8   0x00000008   Data   RO         1532    .constdata          clk.o
    0x00003ad0   0x00003ad0   0x00000024   Data   RO         2792    .constdata          rtc.o
    0x00003af4   0x00003af4   0x00000040   Data   RO         3452    .constdata          cw2015.o
    0x00003b34   0x00003b34   0x00000020   Data   RO         4315    Region$$Table       anon$$obj.o


    Execution Region RW_IRAM1 (Exec base: 0x20000000, Load base: 0x00003b54, Size: 0x00000b78, Max: 0x00001000, ABSOLUTE)

    Exec Addr    Load Addr    Size         Type   Attr      Idx    E Section Name        Object

    0x20000000   0x00003b54   0x00000004   Data   RW           14    .data               system_hc32l110.o
    0x20000004   0x00003b58   0x00000002   Data   RW          317    .data               tasks.o
    0x20000006   0x00003b5a   0x00000005   Data   RW          477    .data               devices.o
    0x2000000b   0x00003b5f   0x00000001   PAD
    0x2000000c   0x00003b60   0x00000004   Data   RW          608    .data               my_api.o
    0x20000010   0x00003b64   0x00000003   Data   RW          681    .data               rtc_task.o
    0x20000013   0x00003b67   0x00000001   PAD
    0x20000014   0x00003b68   0x00000008   Data   RW          742    .data               trans_task.o
    0x2000001c   0x00003b70   0x0000000c   Data   RW         1424    .data               bt.o
    0x20000028   0x00003b7c   0x00000008   Data   RW         1811    .data               flash.o
    0x20000030   0x00003b84   0x00000004   Data   RW         2015    .data               i2c.o
    0x20000034   0x00003b88   0x00000004   Data   RW         2307    .data               lpt.o
    0x20000038   0x00003b8c   0x00000004   Data   RW         2527    .data               lvd.o
    0x2000003c   0x00003b90   0x00000004   Data   RW         2614    .data               pca.o
    0x20000040   0x00003b94   0x00000008   Data   RW         2793    .data               rtc.o
    0x20000048   0x00003b9c   0x00000004   Data   RW         2933    .data               spi.o
    0x2000004c   0x00003ba0   0x00000004   Data   RW         2999    .data               trim.o
    0x20000050   0x00003ba4   0x00000028   Data   RW         3097    .data               uart.o
    0x20000078   0x00003bcc   0x00000008   Data   RW         3225    .data               vc.o
    0x20000080   0x00003bd4   0x00000004   Data   RW         3333    .data               wdt.o
    0x20000084   0x00003bd8   0x0000001e   Data   RW         3392    .data               button.o
    0x200000a2   0x00003bf6   0x00000002   PAD
    0x200000a4   0x00003bf8   0x00000010   Data   RW         3453    .data               cw2015.o
    0x200000b4   0x00003c08   0x00000003   Data   RW         3679    .data               trans_packer.o
    0x200000b7   0x00003c0b   0x00000001   PAD
    0x200000b8   0x00003c0c   0x0000002c   Data   RW         3782    .data               beat_task.o
    0x200000e4   0x00003c38   0x00000018   Data   RW         3909    .data               key_value_transation.o
    0x200000fc   0x00003c50   0x00000004   Data   RW         4290    .data               mc_p.l(mvars.o)
    0x20000100   0x00003c54   0x00000004   Data   RW         4291    .data               mc_p.l(mvars.o)
    0x20000104        -       0x00000096   Zero   RW          111    .bss                eeprom.o
    0x2000019a   0x00003c58   0x00000002   PAD
    0x2000019c        -       0x00000010   Zero   RW          856    .bss                adc.o
    0x200001ac        -       0x000000c0   Zero   RW         1088    .bss                adt.o
    0x2000026c        -       0x0000000c   Zero   RW         2397    .bss                lpuart.o
    0x20000278        -       0x00000800   Zero   RW            2    HEAP                startup_hc32l110.o
    0x20000a78        -       0x00000100   Zero   RW            1    STACK               startup_hc32l110.o

